{
  "contractName": "FixedSupplyToken",
  "abi": [
    {
      "constant": true,
      "inputs": [],
      "name": "name",
      "outputs": [
        {
          "name": "",
          "type": "string"
        }
      ],
      "payable": false,
      "stateMutability": "view",
      "type": "function"
    },
    {
      "constant": false,
      "inputs": [
        {
          "name": "_spender",
          "type": "address"
        },
        {
          "name": "_amount",
          "type": "uint256"
        }
      ],
      "name": "approve",
      "outputs": [
        {
          "name": "success",
          "type": "bool"
        }
      ],
      "payable": false,
      "stateMutability": "nonpayable",
      "type": "function"
    },
    {
      "constant": true,
      "inputs": [],
      "name": "totalSupply",
      "outputs": [
        {
          "name": "t",
          "type": "uint256"
        }
      ],
      "payable": false,
      "stateMutability": "view",
      "type": "function"
    },
    {
      "constant": false,
      "inputs": [
        {
          "name": "_from",
          "type": "address"
        },
        {
          "name": "_to",
          "type": "address"
        },
        {
          "name": "_amount",
          "type": "uint256"
        }
      ],
      "name": "transferFrom",
      "outputs": [
        {
          "name": "success",
          "type": "bool"
        }
      ],
      "payable": false,
      "stateMutability": "nonpayable",
      "type": "function"
    },
    {
      "constant": true,
      "inputs": [],
      "name": "decimals",
      "outputs": [
        {
          "name": "",
          "type": "uint8"
        }
      ],
      "payable": false,
      "stateMutability": "view",
      "type": "function"
    },
    {
      "constant": true,
      "inputs": [
        {
          "name": "_owner",
          "type": "address"
        }
      ],
      "name": "balanceOf",
      "outputs": [
        {
          "name": "balance",
          "type": "uint256"
        }
      ],
      "payable": false,
      "stateMutability": "view",
      "type": "function"
    },
    {
      "constant": true,
      "inputs": [],
      "name": "owner",
      "outputs": [
        {
          "name": "",
          "type": "address"
        }
      ],
      "payable": false,
      "stateMutability": "view",
      "type": "function"
    },
    {
      "constant": true,
      "inputs": [],
      "name": "symbol",
      "outputs": [
        {
          "name": "",
          "type": "string"
        }
      ],
      "payable": false,
      "stateMutability": "view",
      "type": "function"
    },
    {
      "constant": false,
      "inputs": [
        {
          "name": "_to",
          "type": "address"
        },
        {
          "name": "_amount",
          "type": "uint256"
        }
      ],
      "name": "transfer",
      "outputs": [
        {
          "name": "success",
          "type": "bool"
        }
      ],
      "payable": false,
      "stateMutability": "nonpayable",
      "type": "function"
    },
    {
      "constant": true,
      "inputs": [
        {
          "name": "_owner",
          "type": "address"
        },
        {
          "name": "_spender",
          "type": "address"
        }
      ],
      "name": "allowance",
      "outputs": [
        {
          "name": "remaining",
          "type": "uint256"
        }
      ],
      "payable": false,
      "stateMutability": "view",
      "type": "function"
    },
    {
      "inputs": [],
      "payable": false,
      "stateMutability": "nonpayable",
      "type": "constructor"
    },
    {
      "anonymous": false,
      "inputs": [
        {
          "indexed": true,
          "name": "_from",
          "type": "address"
        },
        {
          "indexed": true,
          "name": "_to",
          "type": "address"
        },
        {
          "indexed": false,
          "name": "_value",
          "type": "uint256"
        }
      ],
      "name": "Transfer",
      "type": "event"
    },
    {
      "anonymous": false,
      "inputs": [
        {
          "indexed": true,
          "name": "_owner",
          "type": "address"
        },
        {
          "indexed": true,
          "name": "_spender",
          "type": "address"
        },
        {
          "indexed": false,
          "name": "_value",
          "type": "uint256"
        }
      ],
      "name": "Approval",
      "type": "event"
    }
  ],
  "bytecode": "0x6060604052620f4240600055341561001657600080fd5b33600160006101000a81548173ffffffffffffffffffffffffffffffffffffffff021916908373ffffffffffffffffffffffffffffffffffffffff16021790555060005460026000600160009054906101000a900473ffffffffffffffffffffffffffffffffffffffff1673ffffffffffffffffffffffffffffffffffffffff1673ffffffffffffffffffffffffffffffffffffffff16815260200190815260200160002081905550610be7806100ce6000396000f3006060604052600436106100a4576000357c0100000000000000000000000000000000000000000000000000000000900463ffffffff16806306fdde03146100a9578063095ea7b31461013757806318160ddd1461019157806323b872dd146101ba578063313ce5671461023357806370a08231146102625780638da5cb5b146102af57806395d89b4114610304578063a9059cbb14610392578063dd62ed3e146103ec575b600080fd5b34156100b457600080fd5b6100bc610458565b6040518080602001828103825283818151815260200191508051906020019080838360005b838110156100fc5780820151818401526020810190506100e1565b50505050905090810190601f1680156101295780820380516001836020036101000a031916815260200191505b509250505060405180910390f35b341561014257600080fd5b610177600480803573ffffffffffffffffffffffffffffffffffffffff16906020019091908035906020019091905050610491565b604051808215151515815260200191505060405180910390f35b341561019c57600080fd5b6101a4610583565b6040518082815260200191505060405180910390f35b34156101c557600080fd5b610219600480803573ffffffffffffffffffffffffffffffffffffffff1690602001909190803573ffffffffffffffffffffffffffffffffffffffff1690602001909190803590602001909190505061058c565b604051808215151515815260200191505060405180910390f35b341561023e57600080fd5b610246610893565b604051808260ff1660ff16815260200191505060405180910390f35b341561026d57600080fd5b610299600480803573ffffffffffffffffffffffffffffffffffffffff16906020019091905050610898565b6040518082815260200191505060405180910390f35b34156102ba57600080fd5b6102c26108e1565b604051808273ffffffffffffffffffffffffffffffffffffffff1673ffffffffffffffffffffffffffffffffffffffff16815260200191505060405180910390f35b341561030f57600080fd5b610317610907565b6040518080602001828103825283818151815260200191508051906020019080838360005b8381101561035757808201518184015260208101905061033c565b50505050905090810190601f1680156103845780820380516001836020036101000a031916815260200191505b509250505060405180910390f35b341561039d57600080fd5b6103d2600480803573ffffffffffffffffffffffffffffffffffffffff16906020019091908035906020019091905050610940565b604051808215151515815260200191505060405180910390f35b34156103f757600080fd5b610442600480803573ffffffffffffffffffffffffffffffffffffffff1690602001909190803573ffffffffffffffffffffffffffffffffffffffff16906020019091905050610b34565b6040518082815260200191505060405180910390f35b6040805190810160405280601a81526020017f4578616d706c6520466978656420537570706c7920546f6b656e00000000000081525081565b600081600360003373ffffffffffffffffffffffffffffffffffffffff1673ffffffffffffffffffffffffffffffffffffffff16815260200190815260200160002060008573ffffffffffffffffffffffffffffffffffffffff1673ffffffffffffffffffffffffffffffffffffffff168152602001908152602001600020819055508273ffffffffffffffffffffffffffffffffffffffff163373ffffffffffffffffffffffffffffffffffffffff167f8c5be1e5ebec7d5bd14f71427d1e84f3dd0314c0f7b2291e5b200ac8c7c3b925846040518082815260200191505060405180910390a36001905092915050565b60008054905090565b600081600260008673ffffffffffffffffffffffffffffffffffffffff1673ffffffffffffffffffffffffffffffffffffffff1681526020019081526020016000205410158015610659575081600360008673ffffffffffffffffffffffffffffffffffffffff1673ffffffffffffffffffffffffffffffffffffffff16815260200190815260200160002060003373ffffffffffffffffffffffffffffffffffffffff1673ffffffffffffffffffffffffffffffffffffffff1681526020019081526020016000205410155b80156106655750600082115b80156106f05750600260008473ffffffffffffffffffffffffffffffffffffffff1673ffffffffffffffffffffffffffffffffffffffff1681526020019081526020016000205482600260008673ffffffffffffffffffffffffffffffffffffffff1673ffffffffffffffffffffffffffffffffffffffff1681526020019081526020016000205401115b156108875781600260008673ffffffffffffffffffffffffffffffffffffffff1673ffffffffffffffffffffffffffffffffffffffff1681526020019081526020016000206000828254039250508190555081600360008673ffffffffffffffffffffffffffffffffffffffff1673ffffffffffffffffffffffffffffffffffffffff16815260200190815260200160002060003373ffffffffffffffffffffffffffffffffffffffff1673ffffffffffffffffffffffffffffffffffffffff1681526020019081526020016000206000828254039250508190555081600260008573ffffffffffffffffffffffffffffffffffffffff1673ffffffffffffffffffffffffffffffffffffffff168152602001908152602001600020600082825401925050819055508273ffffffffffffffffffffffffffffffffffffffff168473ffffffffffffffffffffffffffffffffffffffff167fddf252ad1be2c89b69c2b068fc378daa952ba7f163c4a11628f55a4df523b3ef846040518082815260200191505060405180910390a36001905061088c565b600090505b9392505050565b601281565b6000600260008373ffffffffffffffffffffffffffffffffffffffff1673ffffffffffffffffffffffffffffffffffffffff168152602001908152602001600020549050919050565b600160009054906101000a900473ffffffffffffffffffffffffffffffffffffffff1681565b6040805190810160405280600581526020017f464958454400000000000000000000000000000000000000000000000000000081525081565b600081600260003373ffffffffffffffffffffffffffffffffffffffff1673ffffffffffffffffffffffffffffffffffffffff16815260200190815260200160002054101580156109915750600082115b8015610a1c5750600260008473ffffffffffffffffffffffffffffffffffffffff1673ffffffffffffffffffffffffffffffffffffffff1681526020019081526020016000205482600260008673ffffffffffffffffffffffffffffffffffffffff1673ffffffffffffffffffffffffffffffffffffffff1681526020019081526020016000205401115b15610b295781600260003373ffffffffffffffffffffffffffffffffffffffff1673ffffffffffffffffffffffffffffffffffffffff1681526020019081526020016000206000828254039250508190555081600260008573ffffffffffffffffffffffffffffffffffffffff1673ffffffffffffffffffffffffffffffffffffffff168152602001908152602001600020600082825401925050819055508273ffffffffffffffffffffffffffffffffffffffff163373ffffffffffffffffffffffffffffffffffffffff167fddf252ad1be2c89b69c2b068fc378daa952ba7f163c4a11628f55a4df523b3ef846040518082815260200191505060405180910390a360019050610b2e565b600090505b92915050565b6000600360008473ffffffffffffffffffffffffffffffffffffffff1673ffffffffffffffffffffffffffffffffffffffff16815260200190815260200160002060008373ffffffffffffffffffffffffffffffffffffffff1673ffffffffffffffffffffffffffffffffffffffff168152602001908152602001600020549050929150505600a165627a7a72305820370913c4c9224838b3258b5240f651556ee20f8edffc8f5515463be4e6b6f2140029",
  "source": "pragma solidity ^0.4.8;\n\n \n\n// ----------------------------------------------------------------------------------------------\n\n// Sample fixed supply token contract\n\n// Enjoy. (c) BokkyPooBah 2017. The MIT Licence.\n\n// ----------------------------------------------------------------------------------------------\n\n \n\n// ERC Token Standard #20 Interface\n\n// https://github.com/ethereum/EIPs/issues/20\n\ncontract ERC20Interface {\n\n    // Get the total token supply\n\n    function totalSupply() public constant returns (uint256 t);\n\n \n\n    // Get the account balance of another account with address _owner\n\n    function balanceOf(address _owner) public constant returns (uint256 balance);\n\n \n\n    // Send _value amount of tokens to address _to\n\n    function transfer(address _to, uint256 _value) public returns (bool success);\n\n \n\n    // Send _value amount of tokens from address _from to address _to\n\n    function transferFrom(address _from, address _to, uint256 _value) public returns (bool success);\n\n \n\n    // Allow _spender to withdraw from your account, multiple times, up to the _value amount.\n\n    // If this function is called again it overwrites the current allowance with _value.\n\n    // this function is required for some DEX functionality\n\n    function approve(address _spender, uint256 _value) public returns (bool success);\n\n \n\n    // Returns the amount which _spender is still allowed to withdraw from _owner\n\n    function allowance(address _owner, address _spender) public constant returns (uint256 remaining);\n\n \n\n    // Triggered when tokens are transferred.\n\n    event Transfer(address indexed _from, address indexed _to, uint256 _value);\n\n \n\n    // Triggered whenever approve(address _spender, uint256 _value) is called.\n\n    event Approval(address indexed _owner, address indexed _spender, uint256 _value);\n\n}\n\n \n\ncontract FixedSupplyToken is ERC20Interface {\n\n    string public constant symbol = \"FIXED\";\n\n    string public constant name = \"Example Fixed Supply Token\";\n\n    uint8 public constant decimals = 18;\n\n    uint256 _totalSupply = 1000000;\n\n    \n\n    // Owner of this contract\n\n    address public owner;\n\n \n\n    // Balances for each account\n\n    mapping(address => uint256) balances;\n\n \n\n    // Owner of account approves the transfer of an amount to another account\n\n    mapping(address => mapping (address => uint256)) allowed;\n\n \n\n    // Functions with this modifier can only be executed by the owner\n\n    modifier onlyOwner() {\n\n        require(msg.sender == owner);\n        _;\n\n    }\n\n \n\n    // Constructor\n\n    function FixedSupplyToken() public {\n\n        owner = msg.sender;\n\n        balances[owner] = _totalSupply;\n\n    }\n\n \n\n    function totalSupply() public constant returns (uint256 t) {\n\n        t = _totalSupply;\n\n    }\n\n \n\n    // What is the balance of a particular account?\n\n    function balanceOf(address _owner) public constant returns (uint256 balance) {\n\n        return balances[_owner];\n\n    }\n\n \n\n    // Transfer the balance from owner's account to another account\n\n    function transfer(address _to, uint256 _amount) public returns (bool success) {\n\n        if (balances[msg.sender] >= _amount \n\n            && _amount > 0\n\n            && balances[_to] + _amount > balances[_to]) {\n\n            balances[msg.sender] -= _amount;\n\n            balances[_to] += _amount;\n\n            Transfer(msg.sender, _to, _amount);\n\n            return true;\n\n        } else {\n\n            return false;\n\n        }\n\n    }\n\n \n\n    // Send _value amount of tokens from address _from to address _to\n\n    // The transferFrom method is used for a withdraw workflow, allowing contracts to send\n\n    // tokens on your behalf, for example to \"deposit\" to a contract address and/or to charge\n\n    // fees in sub-currencies; the command should fail unless the _from account has\n\n    // deliberately authorized the sender of the message via some mechanism; we propose\n\n    // these standardized APIs for approval:\n\n    function transferFrom(\n\n        address _from,\n\n        address _to,\n\n        uint256 _amount\n\n    ) public returns (bool success) {\n\n        if (balances[_from] >= _amount\n\n            && allowed[_from][msg.sender] >= _amount\n\n            && _amount > 0\n\n            && balances[_to] + _amount > balances[_to]) {\n\n            balances[_from] -= _amount;\n\n            allowed[_from][msg.sender] -= _amount;\n\n            balances[_to] += _amount;\n\n            Transfer(_from, _to, _amount);\n\n            return true;\n\n        } else {\n\n            return false;\n\n        }\n\n    }\n\n \n\n    // Allow _spender to withdraw from your account, multiple times, up to the _value amount.\n\n    // If this function is called again it overwrites the current allowance with _value.\n\n    function approve(address _spender, uint256 _amount) public returns (bool success) {\n\n        allowed[msg.sender][_spender] = _amount;\n\n        Approval(msg.sender, _spender, _amount);\n\n        return true;\n\n    }\n\n \n\n    function allowance(address _owner, address _spender) public constant returns (uint256 remaining) {\n\n        return allowed[_owner][_spender];\n\n    }\n\n}\n",
  "sourcePath": "/home/amp/Documents/hotnow/src/hotoken/contracts/FixedSupplyToken.sol",
  "compiler": {
    "name": "solc",
    "version": "0.4.18+commit.9cf6e910.Emscripten.clang"
  },
  "schemaVersion": "1.0.1",
  "updatedAt": "2017-11-29T10:48:30.459Z"
}